:03000000020030CB
:03001B000200E1FF
:10003000E4F550F551F552F553F554F5557D00D2E0
:10004000AFD2AB758910758D3C758BB0D28E120214
:100050002BBD0103755401BD0216E55304B40C0C0D
:100060007400F553E555B2E7F55501D9F55301D9BB
:10007000BD0310E55204B43C06E500F55201D9F584
:100080005201D9BD0410E55104B43C067400F55189
:1000900001D9F55101D9BD0503755400BD0616E51A
:1000A0005314B4FF0C740BF553E555B2E7F5550145
:1000B000D9F55301D9BD0710E55214B4FF06743BBE
:1000C000F55201D9F55201D9BD080EE55114B4FF1E
:1000D00006743BF55101D9F5511201167D0002005D
:1000E0004E758D3C758BB00550E550B41427755096
:1000F000000551E551B43C1D7551000552E552B45F
:100100003C137552000553E553B40C09755300E5D3
:1001100055B2E7F55532900270E551B40A1875A052
:1001200007740093F58075800075A006740193F53F
:10013000807580008032401C75F00A84F8E5F07507
:10014000A00793F580758000E875A00693F580758B
:100150008000801475A00793F58075800075A00657
:10016000740093F580758000E552B40A1875A005F7
:0B017000740093F58075800075A004FA
:10017B00740193F5807580008032401C75F00A8401
:10018B00F8E5F075A00593F580758000E875A0047F
:10019B0093F580758000801475A00593F5807580AC
:1001AB000075A004740093F580758000E553B40AC4
:1001BB001875A003740093F58075800075A0027408
:1001CB000193F5807580008032401C75F00A84F82D
:1001DB00E5F075A00393F580758000E875A0029398
:1001EB00F580758000801475A00393F580758000F1
:1001FB0075A002740093F580758000E554B400027D
:10020B00801D75A00175804075800075A000E555B7
:10021B00B400067580777580007580737580002239
:10022B007590F0E59054F064F06039120283E5901C
:10023B0054F064F0602E7AFEEAF590E59054F0FBF2
:10024B00B4F007EA23FA64EF70EEEA540F4BFC7D2F
:10025B000190027AED936C60030D80F8E59054F0F9
:10026B0064F070F8223F065B4F666D7D077F6F0071
:10027B00EEDEBE7EEDDDBD7D7E0F7FF800DFFEDEA8
:02028B00F92256
:00000001FF
