:0C000600010800010CFE010DFE010900C4
:0300030002017681
:0401760075080132D5
:03001300020105E2
:10010500C0E0C0F0C083C082C0D075D000C000C0C0
:1001150001C002C003C004C005C006C007750802BF
:100125007FF47E0112015830B3FDE50970047F01AB
:1001350080027F008F09C28BD007D006D005D0047E
:10014500D003D002D001D000D0D0D082D083D0F05F
:03015500D0E032C5
:1000A200D2AFD2A8D2AAD288D28AE508B4011D7FE3
:1000B200F47E0112015830B2FD850C80AF0C78013C
:1000C200EF08800123D8FDF50CE4F508E508B40239
:1000D200D9E5096018AF0D7801EF08800123D8FD3A
:1000E200F50DF5807FE87E0312015880E4E5097082
:1000F2000D750DFE7580FF7FD07E07120158E4F565
:030102000880A7CB
:10015800D3EF9400EE940040147D7C7C00ED1D707C
:0D016800011CED4C70F7EF1F70E61E80E3E8
:010175002267
:03000000020016E5
:0C001600787FE4F6D8FD75810D02005DD6
:100022000200A2E493A3F8E493A34003F68001F252
:1000320008DFF48029E493A3F85407240CC8C333DF
:10004200C4540F4420C8834004F456800146F6DFAE
:10005200E4800B0102040810204080900006E47E38
:10006200019360BCA3FF543F30E509541FFEE493A3
:10007200A360010ECF54C025E060A840B8E493A36A
:10008200FAE493A3F8E493A3C8C582C8CAC583CA95
:10009200F0A3C8C582C8CAC583CADFE9DEE780BE4D
:0100120000ED
:00000001FF
