:10031100041500000000021200000A083F065B4FAE
:09032100666D7D077F6F01140079
:03001B000202A935
:1002A900C0E0C0D075D000C007758D3C758BB00516
:1002B90015E5156414702CF5150516E516643C70E2
:1002C90022F5160517E517B43C197517000518E549
:1002D90018B40C0F751800E51370047F0180027FB4
:0A02E900008F13D007D0D0D0E03210
:10032B00D2AFD2AB758910758D3C758BB0D28E2246
:1002F300D3EF9400EE940040147D7C7C00ED1D70E0
:0D030300011CED4C70F7EF1F70E61E80E34B
:0103100022CA
:10001E00E516C3940A402B75A007E51675F00A8401
:10002E00FEE51675F00A84AFF074082FF8E6F58039
:10003E00E4F58075A00674082EF8E6F580E4F580E8
:10004E00801675A00774082516F8E6F580E4F5808D
:10005E0075A006850880F580E517C3940A402B75B8
:10006E00A005E51775F00A84FEE51775F00A84AF52
:10007E00F074082FF8E6F580E4F58075A004740896
:10008E002EF8E6F580E4F580801675A00574082537
:10009E0017F8E6F580E4F58075A004850880F580F4
:1000AE00E518C3940A402B75A003E51875F00A8471
:1000BE00FEE51875F00A84AFF074082FF8E6F580A7
:1000CE00E4F58075A00274082EF8E6F580E4F5805C
:1000DE00801675A00374082518F8E6F580E4F580FF
:1000EE0075A002850880F580E512B4011D75A0018A
:1000FE00758040E4F580E5137008F5A0758077F5FE
:0A010E008022E4F5A0758073F580EF
:0101180022C4
:100238007590F0E59064F060677F0A7E001202F323
:10024800E59064F0604B7590F0AF90EF2490601BE0
:1002580024C0601224E0600924F070127514018033
:100268000D751402800875140380037514047590C5
:100278000FAF90EF24F9601324FC600B24FE600399
:1002880014800E7404800674088002740C2514F51A
:1002980014E590640F60097F147E001202F380F168
:0102A8002233
:10011900E51414B4080040030201AB90013275F0F4
:1001290003A4C58325F0C5837302014A02014E0267
:10013900016502017002017B02017F020196020141
:10014900A1751201220518E518640C7055F518E51A
:100159001370047F0180027F008F13220517E517B2
:10016900643C703EF517220516E516643C7033F5BC
:100179001622E4F512221518E518F4702575180BE6
:10018900E51370047F0180027F008F13221517E5A4
:1001990017B4FF0E75173B221516E516B4FF037544
:0301A900163B22E0
:1000030012032B12023812011912001EE4F5148098
:01001300F2FA
:030000000201AC4E
:0C01AC00787FE4F6D8FD7581180201F39D
:1001B800020003E493A3F8E493A34003F68001F25A
:1001C80008DFF48029E493A3F85407240CC8C33348
:1001D800C4540F4420C8834004F456800146F6DF17
:1001E800E4800B0102040810204080900311E47E93
:1001F800019360BCA3FF543F30E509541FFEE4930C
:10020800A360010ECF54C025E060A840B8E493A3D2
:10021800FAE493A3F8E493A3C8C582C8CAC583CAFD
:10022800F0A3C8C582C8CAC583CADFE9DEE780BEB5
:01032A0000D2
:00000001FF
