:10019B00010409101924314051647990A9C4E1017B
:0901AB00000121014401690190E9
:1001120075081E75091F780A7C007D007BFF7A0135
:10012200799B7E007F0F1200D378197C007D007BC3
:10013200FF7A0179AA7E007F0A1200D37F09A809FB
:10014200E4F6C3EF64809490500BA808E4F67409B7
:050152002FF8E68040DB
:1001570075230075240075251974F02FFF3395E07A
:10016700FEEF25E0FFEE33FEEF2525F525EE3524DE
:10017700F524AB23FAA9251200F9A808F67401257E
:1001870025F525E43524F524AB23FAA9251200F932
:03019700A809F6BE
:01019A002242
:030000000201B446
:0C01B400787FE4F6D8FD75812502011269
:10000300E709F608DFFA8046E709F208DFFA803EDF
:1000130088828C83E709F0A3DFFA8032E309F608CC
:10002300DFFA8078E309F208DFFA807088828C8334
:10003300E309F0A3DFFA806489828A83E0A3F608E8
:10004300DFFA805889828A83E0A3F208DFFA804CC2
:1000530080D280FA80C680D4806980F28033801099
:1000630080A680EA809A80A880DA80E280CA803302
:1000730089828A83ECFAE493A3C8C582C8CCC5837A
:10008300CCF0A3C8C582C8CCC583CCDFE9DEE7804A
:100093000D89828A83E493A3F608DFF9ECFAA9F0C9
:1000A300EDFB2289828A83ECFAE0A3C8C582C8CC1F
:1000B300C583CCF0A3C8C582C8CCC583CCDFEADE38
:1000C300E880DB89828A83E493A3F208DFF980CC9A
:1000D30088F0EF60010E4E60C388F0ED2402B40493
:1000E3000050B9F582EB2402B4040050AF2323453A
:0600F3008223900053730C
:1000F900BB010689828A83E0225002E722BBFE0205
:09010900E32289828A83E4932237
:00000001FF
